{
  "address": "0x331994d88f069538532a8de0dc08e938eb9af6b5",
  "abi": [
    {
      "inputs": [
        {
          "internalType": "address",
          "name": "usdcToken",
          "type": "address"
        }
      ],
      "stateMutability": "nonpayable",
      "type": "constructor"
    },
    {
      "inputs": [
        {
          "internalType": "address",
          "name": "target",
          "type": "address"
        }
      ],
      "name": "AddressEmptyCode",
      "type": "error"
    },
    {
      "inputs": [
        {
          "internalType": "address",
          "name": "account",
          "type": "address"
        }
      ],
      "name": "AddressInsufficientBalance",
      "type": "error"
    },
    {
      "inputs": [],
      "name": "FailedInnerCall",
      "type": "error"
    },
    {
      "inputs": [],
      "name": "ReentrancyGuardReentrantCall",
      "type": "error"
    },
    {
      "inputs": [
        {
          "internalType": "address",
          "name": "token",
          "type": "address"
        }
      ],
      "name": "SafeERC20FailedOperation",
      "type": "error"
    },
    {
      "anonymous": false,
      "inputs": [
        {
          "indexed": true,
          "internalType": "uint256",
          "name": "projectId",
          "type": "uint256"
        },
        {
          "indexed": false,
          "internalType": "uint256",
          "name": "milestoneIndex",
          "type": "uint256"
        },
        {
          "indexed": true,
          "internalType": "address",
          "name": "assignee",
          "type": "address"
        }
      ],
      "name": "MilestoneAccepted",
      "type": "event"
    },
    {
      "anonymous": false,
      "inputs": [
        {
          "indexed": true,
          "internalType": "uint256",
          "name": "projectId",
          "type": "uint256"
        },
        {
          "indexed": false,
          "internalType": "uint256",
          "name": "milestoneIndex",
          "type": "uint256"
        },
        {
          "indexed": false,
          "internalType": "uint256",
          "name": "assigneeAmount",
          "type": "uint256"
        },
        {
          "indexed": false,
          "internalType": "uint256",
          "name": "pmFee",
          "type": "uint256"
        }
      ],
      "name": "MilestoneApproved",
      "type": "event"
    },
    {
      "anonymous": false,
      "inputs": [
        {
          "indexed": true,
          "internalType": "uint256",
          "name": "projectId",
          "type": "uint256"
        },
        {
          "indexed": false,
          "internalType": "uint256",
          "name": "milestoneIndex",
          "type": "uint256"
        },
        {
          "indexed": true,
          "internalType": "address",
          "name": "assignee",
          "type": "address"
        },
        {
          "indexed": true,
          "internalType": "address",
          "name": "assignedBy",
          "type": "address"
        }
      ],
      "name": "MilestoneAssigned",
      "type": "event"
    },
    {
      "anonymous": false,
      "inputs": [
        {
          "indexed": true,
          "internalType": "uint256",
          "name": "projectId",
          "type": "uint256"
        },
        {
          "indexed": false,
          "internalType": "uint256",
          "name": "milestoneIndex",
          "type": "uint256"
        },
        {
          "indexed": true,
          "internalType": "address",
          "name": "assignee",
          "type": "address"
        },
        {
          "indexed": false,
          "internalType": "string",
          "name": "reason",
          "type": "string"
        }
      ],
      "name": "MilestoneDeclined",
      "type": "event"
    },
    {
      "anonymous": false,
      "inputs": [
        {
          "indexed": true,
          "internalType": "uint256",
          "name": "projectId",
          "type": "uint256"
        },
        {
          "indexed": false,
          "internalType": "uint256",
          "name": "milestoneIndex",
          "type": "uint256"
        },
        {
          "indexed": false,
          "internalType": "uint256",
          "name": "amount",
          "type": "uint256"
        },
        {
          "indexed": false,
          "internalType": "bool",
          "name": "autoReleased",
          "type": "bool"
        }
      ],
      "name": "MilestonePaid",
      "type": "event"
    },
    {
      "anonymous": false,
      "inputs": [
        {
          "indexed": true,
          "internalType": "uint256",
          "name": "projectId",
          "type": "uint256"
        },
        {
          "indexed": false,
          "internalType": "uint256",
          "name": "milestoneIndex",
          "type": "uint256"
        },
        {
          "indexed": false,
          "internalType": "string",
          "name": "reason",
          "type": "string"
        }
      ],
      "name": "MilestoneRejected",
      "type": "event"
    },
    {
      "anonymous": false,
      "inputs": [
        {
          "indexed": true,
          "internalType": "uint256",
          "name": "projectId",
          "type": "uint256"
        },
        {
          "indexed": false,
          "internalType": "uint256",
          "name": "milestoneIndex",
          "type": "uint256"
        }
      ],
      "name": "MilestoneStarted",
      "type": "event"
    },
    {
      "anonymous": false,
      "inputs": [
        {
          "indexed": true,
          "internalType": "uint256",
          "name": "projectId",
          "type": "uint256"
        },
        {
          "indexed": false,
          "internalType": "uint256",
          "name": "milestoneIndex",
          "type": "uint256"
        },
        {
          "indexed": false,
          "internalType": "string",
          "name": "note",
          "type": "string"
        }
      ],
      "name": "MilestoneSubmitted",
      "type": "event"
    },
    {
      "anonymous": false,
      "inputs": [
        {
          "indexed": true,
          "internalType": "uint256",
          "name": "projectId",
          "type": "uint256"
        },
        {
          "indexed": false,
          "internalType": "uint256",
          "name": "milestoneIndex",
          "type": "uint256"
        },
        {
          "indexed": true,
          "internalType": "address",
          "name": "previousAssignee",
          "type": "address"
        }
      ],
      "name": "MilestoneUnassigned",
      "type": "event"
    },
    {
      "anonymous": false,
      "inputs": [
        {
          "indexed": true,
          "internalType": "uint256",
          "name": "projectId",
          "type": "uint256"
        },
        {
          "indexed": false,
          "internalType": "uint256",
          "name": "refundAmount",
          "type": "uint256"
        }
      ],
      "name": "ProjectCancelled",
      "type": "event"
    },
    {
      "anonymous": false,
      "inputs": [
        {
          "indexed": true,
          "internalType": "uint256",
          "name": "projectId",
          "type": "uint256"
        },
        {
          "indexed": true,
          "internalType": "address",
          "name": "client",
          "type": "address"
        },
        {
          "indexed": false,
          "internalType": "address",
          "name": "pm",
          "type": "address"
        },
        {
          "indexed": false,
          "internalType": "uint256",
          "name": "pmFeeBps",
          "type": "uint256"
        },
        {
          "indexed": false,
          "internalType": "uint256",
          "name": "totalAmount",
          "type": "uint256"
        },
        {
          "indexed": false,
          "internalType": "uint256",
          "name": "milestoneCount",
          "type": "uint256"
        }
      ],
      "name": "ProjectCreated",
      "type": "event"
    },
    {
      "inputs": [],
      "name": "ASSIGNMENT_TIMEOUT",
      "outputs": [
        {
          "internalType": "uint256",
          "name": "",
          "type": "uint256"
        }
      ],
      "stateMutability": "view",
      "type": "function"
    },
    {
      "inputs": [],
      "name": "BPS_DENOMINATOR",
      "outputs": [
        {
          "internalType": "uint256",
          "name": "",
          "type": "uint256"
        }
      ],
      "stateMutability": "view",
      "type": "function"
    },
    {
      "inputs": [],
      "name": "MAX_PM_FEE_BPS",
      "outputs": [
        {
          "internalType": "uint256",
          "name": "",
          "type": "uint256"
        }
      ],
      "stateMutability": "view",
      "type": "function"
    },
    {
      "inputs": [],
      "name": "MIN_MILESTONE_AMOUNT",
      "outputs": [
        {
          "internalType": "uint256",
          "name": "",
          "type": "uint256"
        }
      ],
      "stateMutability": "view",
      "type": "function"
    },
    {
      "inputs": [],
      "name": "TIMEOUT_PERIOD",
      "outputs": [
        {
          "internalType": "uint256",
          "name": "",
          "type": "uint256"
        }
      ],
      "stateMutability": "view",
      "type": "function"
    },
    {
      "inputs": [
        {
          "internalType": "uint256",
          "name": "projectId",
          "type": "uint256"
        },
        {
          "internalType": "uint256",
          "name": "milestoneIndex",
          "type": "uint256"
        }
      ],
      "name": "acceptMilestone",
      "outputs": [],
      "stateMutability": "nonpayable",
      "type": "function"
    },
    {
      "inputs": [
        {
          "internalType": "uint256",
          "name": "projectId",
          "type": "uint256"
        },
        {
          "internalType": "uint256",
          "name": "milestoneIndex",
          "type": "uint256"
        }
      ],
      "name": "approveMilestone",
      "outputs": [],
      "stateMutability": "nonpayable",
      "type": "function"
    },
    {
      "inputs": [
        {
          "internalType": "uint256",
          "name": "projectId",
          "type": "uint256"
        },
        {
          "internalType": "uint256",
          "name": "milestoneIndex",
          "type": "uint256"
        },
        {
          "internalType": "address",
          "name": "assignee",
          "type": "address"
        }
      ],
      "name": "assignMilestone",
      "outputs": [],
      "stateMutability": "nonpayable",
      "type": "function"
    },
    {
      "inputs": [
        {
          "internalType": "uint256",
          "name": "projectId",
          "type": "uint256"
        }
      ],
      "name": "cancelProject",
      "outputs": [],
      "stateMutability": "nonpayable",
      "type": "function"
    },
    {
      "inputs": [
        {
          "internalType": "address",
          "name": "pm",
          "type": "address"
        },
        {
          "internalType": "uint256",
          "name": "pmFeeBps",
          "type": "uint256"
        },
        {
          "internalType": "string[]",
          "name": "descriptions",
          "type": "string[]"
        },
        {
          "internalType": "uint256[]",
          "name": "amounts",
          "type": "uint256[]"
        },
        {
          "internalType": "address[]",
          "name": "initialAssignees",
          "type": "address[]"
        }
      ],
      "name": "createProject",
      "outputs": [
        {
          "internalType": "uint256",
          "name": "",
          "type": "uint256"
        }
      ],
      "stateMutability": "nonpayable",
      "type": "function"
    },
    {
      "inputs": [
        {
          "internalType": "uint256",
          "name": "projectId",
          "type": "uint256"
        },
        {
          "internalType": "uint256",
          "name": "milestoneIndex",
          "type": "uint256"
        },
        {
          "internalType": "string",
          "name": "reason",
          "type": "string"
        }
      ],
      "name": "declineMilestone",
      "outputs": [],
      "stateMutability": "nonpayable",
      "type": "function"
    },
    {
      "inputs": [
        {
          "internalType": "uint256",
          "name": "projectId",
          "type": "uint256"
        },
        {
          "internalType": "uint256",
          "name": "milestoneIndex",
          "type": "uint256"
        }
      ],
      "name": "emergencyReclaim",
      "outputs": [],
      "stateMutability": "nonpayable",
      "type": "function"
    },
    {
      "inputs": [
        {
          "internalType": "uint256",
          "name": "projectId",
          "type": "uint256"
        },
        {
          "internalType": "uint256",
          "name": "milestoneIndex",
          "type": "uint256"
        }
      ],
      "name": "expireAssignment",
      "outputs": [],
      "stateMutability": "nonpayable",
      "type": "function"
    },
    {
      "inputs": [
        {
          "internalType": "uint256",
          "name": "projectId",
          "type": "uint256"
        },
        {
          "internalType": "address",
          "name": "addr",
          "type": "address"
        }
      ],
      "name": "getAddressRole",
      "outputs": [
        {
          "internalType": "bool",
          "name": "isClient",
          "type": "bool"
        },
        {
          "internalType": "bool",
          "name": "isPM",
          "type": "bool"
        },
        {
          "internalType": "uint256[]",
          "name": "assignedMilestones",
          "type": "uint256[]"
        }
      ],
      "stateMutability": "view",
      "type": "function"
    },
    {
      "inputs": [
        {
          "internalType": "uint256",
          "name": "projectId",
          "type": "uint256"
        }
      ],
      "name": "getAllMilestones",
      "outputs": [
        {
          "internalType": "string[]",
          "name": "descriptions",
          "type": "string[]"
        },
        {
          "internalType": "uint256[]",
          "name": "amounts",
          "type": "uint256[]"
        },
        {
          "internalType": "address[]",
          "name": "assignees",
          "type": "address[]"
        },
        {
          "internalType": "enum ChordEscrow.MilestoneStatus[]",
          "name": "statuses",
          "type": "uint8[]"
        },
        {
          "internalType": "uint256[]",
          "name": "submittedAts",
          "type": "uint256[]"
        },
        {
          "internalType": "string[]",
          "name": "submissionNotes",
          "type": "string[]"
        }
      ],
      "stateMutability": "view",
      "type": "function"
    },
    {
      "inputs": [
        {
          "internalType": "uint256",
          "name": "projectId",
          "type": "uint256"
        },
        {
          "internalType": "uint256",
          "name": "milestoneIndex",
          "type": "uint256"
        }
      ],
      "name": "getMilestone",
      "outputs": [
        {
          "internalType": "string",
          "name": "description",
          "type": "string"
        },
        {
          "internalType": "uint256",
          "name": "amount",
          "type": "uint256"
        },
        {
          "internalType": "address",
          "name": "assignee",
          "type": "address"
        },
        {
          "internalType": "enum ChordEscrow.MilestoneStatus",
          "name": "status",
          "type": "uint8"
        },
        {
          "internalType": "uint256",
          "name": "createdAt",
          "type": "uint256"
        },
        {
          "internalType": "uint256",
          "name": "submittedAt",
          "type": "uint256"
        },
        {
          "internalType": "string",
          "name": "submissionNote",
          "type": "string"
        }
      ],
      "stateMutability": "view",
      "type": "function"
    },
    {
      "inputs": [
        {
          "internalType": "uint256",
          "name": "projectId",
          "type": "uint256"
        },
        {
          "internalType": "uint256",
          "name": "milestoneIndex",
          "type": "uint256"
        }
      ],
      "name": "getMilestoneTimestamps",
      "outputs": [
        {
          "internalType": "uint256",
          "name": "createdAt",
          "type": "uint256"
        },
        {
          "internalType": "uint256",
          "name": "assignedAt",
          "type": "uint256"
        },
        {
          "internalType": "uint256",
          "name": "acceptedAt",
          "type": "uint256"
        },
        {
          "internalType": "uint256",
          "name": "submittedAt",
          "type": "uint256"
        },
        {
          "internalType": "bool",
          "name": "canAutoRelease",
          "type": "bool"
        }
      ],
      "stateMutability": "view",
      "type": "function"
    },
    {
      "inputs": [
        {
          "internalType": "uint256",
          "name": "projectId",
          "type": "uint256"
        }
      ],
      "name": "getProject",
      "outputs": [
        {
          "internalType": "address",
          "name": "client",
          "type": "address"
        },
        {
          "internalType": "address",
          "name": "pm",
          "type": "address"
        },
        {
          "internalType": "uint256",
          "name": "pmFeeBps",
          "type": "uint256"
        },
        {
          "internalType": "uint256",
          "name": "totalAmount",
          "type": "uint256"
        },
        {
          "internalType": "uint256",
          "name": "totalPaid",
          "type": "uint256"
        },
        {
          "internalType": "uint256",
          "name": "totalPmFees",
          "type": "uint256"
        },
        {
          "internalType": "bool",
          "name": "active",
          "type": "bool"
        },
        {
          "internalType": "uint256",
          "name": "milestoneCount",
          "type": "uint256"
        }
      ],
      "stateMutability": "view",
      "type": "function"
    },
    {
      "inputs": [
        {
          "internalType": "uint256",
          "name": "projectId",
          "type": "uint256"
        }
      ],
      "name": "getProjectStats",
      "outputs": [
        {
          "internalType": "uint256",
          "name": "totalMilestones",
          "type": "uint256"
        },
        {
          "internalType": "uint256",
          "name": "completedMilestones",
          "type": "uint256"
        },
        {
          "internalType": "uint256",
          "name": "paidMilestones",
          "type": "uint256"
        },
        {
          "internalType": "uint256",
          "name": "remainingAmount",
          "type": "uint256"
        },
        {
          "internalType": "uint256",
          "name": "assignedMilestones",
          "type": "uint256"
        },
        {
          "internalType": "uint256",
          "name": "acceptedMilestones",
          "type": "uint256"
        }
      ],
      "stateMutability": "view",
      "type": "function"
    },
    {
      "inputs": [],
      "name": "projectCount",
      "outputs": [
        {
          "internalType": "uint256",
          "name": "",
          "type": "uint256"
        }
      ],
      "stateMutability": "view",
      "type": "function"
    },
    {
      "inputs": [
        {
          "internalType": "uint256",
          "name": "",
          "type": "uint256"
        }
      ],
      "name": "projects",
      "outputs": [
        {
          "internalType": "address",
          "name": "client",
          "type": "address"
        },
        {
          "internalType": "address",
          "name": "pm",
          "type": "address"
        },
        {
          "internalType": "uint256",
          "name": "pmFeeBps",
          "type": "uint256"
        },
        {
          "internalType": "uint256",
          "name": "totalAmount",
          "type": "uint256"
        },
        {
          "internalType": "uint256",
          "name": "totalPaid",
          "type": "uint256"
        },
        {
          "internalType": "uint256",
          "name": "totalPmFees",
          "type": "uint256"
        },
        {
          "internalType": "bool",
          "name": "active",
          "type": "bool"
        }
      ],
      "stateMutability": "view",
      "type": "function"
    },
    {
      "inputs": [
        {
          "internalType": "uint256",
          "name": "projectId",
          "type": "uint256"
        },
        {
          "internalType": "uint256",
          "name": "milestoneIndex",
          "type": "uint256"
        },
        {
          "internalType": "string",
          "name": "reason",
          "type": "string"
        }
      ],
      "name": "rejectMilestone",
      "outputs": [],
      "stateMutability": "nonpayable",
      "type": "function"
    },
    {
      "inputs": [
        {
          "internalType": "uint256",
          "name": "projectId",
          "type": "uint256"
        },
        {
          "internalType": "uint256",
          "name": "milestoneIndex",
          "type": "uint256"
        }
      ],
      "name": "releaseMilestone",
      "outputs": [],
      "stateMutability": "nonpayable",
      "type": "function"
    },
    {
      "inputs": [
        {
          "internalType": "uint256",
          "name": "projectId",
          "type": "uint256"
        },
        {
          "internalType": "uint256",
          "name": "milestoneIndex",
          "type": "uint256"
        }
      ],
      "name": "startMilestone",
      "outputs": [],
      "stateMutability": "nonpayable",
      "type": "function"
    },
    {
      "inputs": [
        {
          "internalType": "uint256",
          "name": "projectId",
          "type": "uint256"
        },
        {
          "internalType": "uint256",
          "name": "milestoneIndex",
          "type": "uint256"
        },
        {
          "internalType": "string",
          "name": "note",
          "type": "string"
        }
      ],
      "name": "submitMilestone",
      "outputs": [],
      "stateMutability": "nonpayable",
      "type": "function"
    },
    {
      "inputs": [
        {
          "internalType": "uint256",
          "name": "projectId",
          "type": "uint256"
        },
        {
          "internalType": "uint256",
          "name": "milestoneIndex",
          "type": "uint256"
        }
      ],
      "name": "unassignMilestone",
      "outputs": [],
      "stateMutability": "nonpayable",
      "type": "function"
    },
    {
      "inputs": [],
      "name": "usdc",
      "outputs": [
        {
          "internalType": "contract IERC20",
          "name": "",
          "type": "address"
        }
      ],
      "stateMutability": "view",
      "type": "function"
    }
  ],
  "transactionHash": "0xe2801c84c027322eed4b486e3e78704b3b82f6248adabafdf235309fa783cf38",
  "args": [
    "0x3600000000000000000000000000000000000000"
  ],
  "numDeployments": 1,
  "solcInputHash": "6eccd265d1fe8bf6da0cb21c84db9a52",
  "bytecode": "0x60a060405234801561001057600080fd5b5060405161416038038061416083398101604081905261002f9161009f565b60016000556001600160a01b03811661008e5760405162461bcd60e51b815260206004820152601560248201527f5553444320616464726573732072657175697265640000000000000000000000604482015260640160405180910390fd5b6001600160a01b03166080526100cf565b6000602082840312156100b157600080fd5b81516001600160a01b03811681146100c857600080fd5b9392505050565b60805161404561011b600039600081816102cd01528181610b2501528181610b8201528181610f17015281816116bb01528181612860015281816128bd01526130ba01526140456000f3fe608060405234801561001057600080fd5b50600436106101a95760003560e01c806364ca28b5116100f9578063dcfe7b9811610097578063e580bd9c11610071578063e580bd9c1461045f578063f0f3f2c81461049c578063f5fce24514610547578063ff6b78ba1461055157600080fd5b8063dcfe7b9814610439578063de0edf6f14610443578063e1a452181461045657600080fd5b80638ed9895c116100d35780638ed9895c146103c857806393eb1026146103ee578063a0b2389b14610401578063dbaf09101461042657600080fd5b806364ca28b5146103625780636e2a373a146103a257806379b5e44f146103b557600080fd5b806336fbad261161016657806349aa97611161014057806349aa9761146103115780635706d6f91461031a5780635baf7a531461032d5780635f1ca6a01461034057600080fd5b806336fbad26146102b15780633e413bee146102c8578063442f14d81461030757600080fd5b80630390e07a146101ae578063107046bd146101c3578063176da2ab1461026557806320913da514610278578063249411471461028b5780633220d5301461029e575b600080fd5b6101c16101bc36600461375d565b610564565b005b61021e6101d13660046137ac565b600260208190526000918252604090912080546001820154928201546003830154600484015460058501546006909501546001600160a01b03948516969094169492939192909160ff1687565b604080516001600160a01b039889168152979096166020880152948601939093526060850191909152608084015260a0830152151560c082015260e0015b60405180910390f35b6101c161027336600461375d565b610769565b6101c16102863660046137c5565b61094c565b6101c16102993660046137ac565b610c4d565b6101c16102ac3660046137c5565b610f8c565b6102ba60015481565b60405190815260200161025c565b6102ef7f000000000000000000000000000000000000000000000000000000000000000081565b6040516001600160a01b03909116815260200161025c565b6102ba62093a8081565b6102ba6107d081565b6101c1610328366004613803565b611141565b6101c161033b3660046137c5565b611452565b61035361034e366004613838565b611749565b60405161025c939291906138a0565b6103756103703660046137ac565b6118b1565b604080519687526020870195909552938501929092526060840152608083015260a082015260c00161025c565b6101c16103b036600461375d565b611a73565b6101c16103c33660046137c5565b611c11565b6103db6103d63660046137c5565b611e25565b60405161025c9796959493929190613954565b6101c16103fc3660046137c5565b612009565b61041461040f3660046137ac565b6121c5565b60405161025c96959493929190613a4c565b6101c16104343660046137c5565b6125fd565b6102ba620f424081565b6101c16104513660046137c5565b612940565b6102ba61271081565b61047261046d3660046137c5565b612b0b565b6040805195865260208601949094529284019190915260608301521515608082015260a00161025c565b6104ff6104aa3660046137ac565b6000908152600260208190526040909120805460018201549282015460038301546004840154600585015460068601546007909601546001600160a01b03958616989590971696939592949193909260ff1691565b604080516001600160a01b03998a168152989097166020890152958701949094526060860192909252608085015260a0840152151560c083015260e08201526101000161025c565b6102ba6212750081565b6102ba61055f366004613bf2565b612bf0565b60008381526002602052604090206007018054849184918290811061058b5761058b613d17565b60009182526020909120600990910201600201546001600160a01b031633146105cf5760405162461bcd60e51b81526004016105c690613d2d565b60405180910390fd5b600085815260026020526040902060060154859060ff166106025760405162461bcd60e51b81526004016105c690613d54565b6000868152600260205260409020600701548690869081106106365760405162461bcd60e51b81526004016105c690613d80565b600088815260026020526040812060070180548990811061065957610659613d17565b6000918252602090912060099091020190506002600782015460ff1660068111156106865761068661391c565b14806106aa57506003600782015460ff1660068111156106a8576106a861391c565b145b6107005760405162461bcd60e51b815260206004820152602160248201527f43616e6e6f74207375626d69742066726f6d2063757272656e742073746174756044820152607360f81b60648201526084016105c6565b60078101805460ff19166004179055426006820155600881016107238882613e3f565b50887f556e3b296d5e8c8bab27684b52ae96905507befd2d188ce6f4453a6717dd9c008989604051610756929190613efd565b60405180910390a2505050505050505050565b60008381526002602052604090206007018054849184918290811061079057610790613d17565b60009182526020909120600990910201600201546001600160a01b031633146107cb5760405162461bcd60e51b81526004016105c690613d2d565b600085815260026020526040902060060154859060ff166107fe5760405162461bcd60e51b81526004016105c690613d54565b6000868152600260205260409020600701548690869081106108325760405162461bcd60e51b81526004016105c690613d80565b600088815260026020526040812060070180548990811061085557610855613d17565b6000918252602090912060099091020190506001600782015460ff1660068111156108825761088261391c565b146108cf5760405162461bcd60e51b815260206004820181905260248201527f4d696c6573746f6e65206e6f7420696e2041737369676e65642073746174757360448201526064016105c6565b6002810180546001600160a01b031981169091556000600483015560078201805460ff191690556040516001600160a01b039091169081908b907fb7a9f037cfc7937c33e666da488e45f0539ab2cf62eab74dbdb4378b8e3b0a1f90610938908d908d90613efd565b60405180910390a350505050505050505050565b61095461343d565b60008281526002602052604090205482906001600160a01b0316331461098c5760405162461bcd60e51b81526004016105c690613f1e565b600083815260026020526040902060060154839060ff166109bf5760405162461bcd60e51b81526004016105c690613d54565b6000848152600260205260409020600701548490849081106109f35760405162461bcd60e51b81526004016105c690613d80565b600086815260026020526040812060078101805491929188908110610a1a57610a1a613d17565b6000918252602090912060099091020190506004600782015460ff166006811115610a4757610a4761391c565b14610a8e5760405162461bcd60e51b8152602060048201526017602482015276135a5b195cdd1bdb99481b9bdd081cdd589b5a5d1d1959604a1b60448201526064016105c6565b600061271083600201548360010154610aa79190613f59565b610ab19190613f70565b90506000818360010154610ac59190613f92565b60078401805460ff1916600617905560018401546004860180549293509091600090610af2908490613fa5565b9250508190555081846005016000828254610b0d9190613fa5565b90915550506002830154610b4e906001600160a01b037f00000000000000000000000000000000000000000000000000000000000000008116911683613467565b60018401546001600160a01b031615801590610b6a5750600082115b15610bab576001840154610bab906001600160a01b037f00000000000000000000000000000000000000000000000000000000000000008116911684613467565b604080518a8152602081018390529081018390528a907f9b9ff2232bef25105f0ccb79a748e9f9d8e01a04485cd0401aa0d1c34b94ba939060600160405180910390a26001830154604080518b815260208101929092526000908201528a907f72f7fbbb65b9676493891b1db16679b5f18463b98706a57923cf18c1d44604ba9060600160405180910390a25050505050505050610c496001600055565b5050565b610c5561343d565b60008181526002602052604090205481906001600160a01b03163314610c8d5760405162461bcd60e51b81526004016105c690613f1e565b600082815260026020526040902060060154829060ff16610cc05760405162461bcd60e51b81526004016105c690613d54565b60008381526002602052604081209080805b6007840154811015610da5576000846007018281548110610cf557610cf5613d17565b600091825260209091206007600990920201015460ff1690506004816006811115610d2257610d2261391c565b1480610d3f57506005816006811115610d3d57610d3d61391c565b145b15610d4e576001925050610da5565b6006816006811115610d6257610d6261391c565b14610d9c57846007018281548110610d7c57610d7c613d17565b90600052602060002090600902016001015484610d999190613fa5565b93505b50600101610cd2565b508015610e105760405162461bcd60e51b815260206004820152603360248201527f43616e6e6f742063616e63656c2077697468207375626d6974746564206f7220604482015272617070726f766564206d696c6573746f6e657360681b60648201526084016105c6565b60008211610e555760405162461bcd60e51b8152602060048201526012602482015271139bc8199d5b991cc81d1bc81c99599d5b9960721b60448201526064016105c6565b60068301805460ff1916905560005b6007840154811015610f06576006846007018281548110610e8757610e87613d17565b600091825260209091206007600990920201015460ff166006811115610eaf57610eaf61391c565b14610efe576006846007018281548110610ecb57610ecb613d17565b60009182526020909120600760099092020101805460ff19166001836006811115610ef857610ef861391c565b02179055505b600101610e64565b508254610f40906001600160a01b037f00000000000000000000000000000000000000000000000000000000000000008116911684613467565b857f8c47220fd672419577c95c6addc9584af09f9e988ff5d84e437305210b61a4b183604051610f7291815260200190565b60405180910390a25050505050610f896001600055565b50565b600082815260026020526040902060070180548391839182908110610fb357610fb3613d17565b60009182526020909120600990910201600201546001600160a01b03163314610fee5760405162461bcd60e51b81526004016105c690613d2d565b600084815260026020526040902060060154849060ff166110215760405162461bcd60e51b81526004016105c690613d54565b6000858152600260205260409020600701548590859081106110555760405162461bcd60e51b81526004016105c690613d80565b600087815260026020526040812060070180548890811061107857611078613d17565b6000918252602090912060099091020190506002600782015460ff1660068111156110a5576110a561391c565b146110f25760405162461bcd60e51b815260206004820181905260248201527f4d696c6573746f6e65206e6f7420696e2041636365707465642073746174757360448201526064016105c6565b60078101805460ff1916600317905560405187815288907fffcd64ba445305863a00b339c134867e02001032f7b80525bfbcc93fbe282423906020015b60405180910390a25050505050505050565b600083815260026020526040902080548491906001600160a01b031633148061118d575060018101546001600160a01b03161580159061118d575060018101546001600160a01b031633145b6111cd5760405162461bcd60e51b81526020600482015260116024820152704f6e6c7920636c69656e74206f7220504d60781b60448201526064016105c6565b600085815260026020526040902060060154859060ff166112005760405162461bcd60e51b81526004016105c690613d54565b6000868152600260205260409020600701548690869081106112345760405162461bcd60e51b81526004016105c690613d80565b60008881526002602052604081206007810180549192918a90811061125b5761125b613d17565b6000918252602082206009909102019150600782015460ff1660068111156112855761128561391c565b146112d25760405162461bcd60e51b815260206004820152601f60248201527f4d696c6573746f6e65206e6f7420696e2043726561746564207374617475730060448201526064016105c6565b6001600160a01b0388166113285760405162461bcd60e51b815260206004820152601860248201527f496e76616c69642061737369676e65652061646472657373000000000000000060448201526064016105c6565b81546001600160a01b03908116908916036113815760405162461bcd60e51b8152602060048201526019602482015278436c69656e742063616e6e6f742062652061737369676e656560381b60448201526064016105c6565b60018201546001600160a01b03908116908916036113d95760405162461bcd60e51b8152602060048201526015602482015274504d2063616e6e6f742062652061737369676e656560581b60448201526064016105c6565b6002810180546001600160a01b0319166001600160a01b038a1690811790915542600483015560078201805460ff191660011790556040518a81523391908c907f14c8b65b26297ca8edd10eb94b1300fb6c198710b903943bd3756b8db1a708cc9060200160405180910390a450505050505050505050565b61145a61343d565b60008281526002602052604090205482906001600160a01b031633146114925760405162461bcd60e51b81526004016105c690613f1e565b600083815260026020526040902060060154839060ff166114c55760405162461bcd60e51b81526004016105c690613d54565b6000848152600260205260409020600701548490849081106114f95760405162461bcd60e51b81526004016105c690613d80565b60008681526002602052604081206007810180549192918890811061152057611520613d17565b6000918252602090912060099091020190506006600782015460ff16600681111561154d5761154d61391c565b036115895760405162461bcd60e51b815260206004820152600c60248201526b105b1c9958591e481c185a5960a21b60448201526064016105c6565b6005600782015460ff1660068111156115a4576115a461391c565b141580156115cb57506004600782015460ff1660068111156115c8576115c861391c565b14155b61162e5760405162461bcd60e51b815260206004820152602e60248201527f43616e6e6f74207265636c61696d20617070726f766564206f72207375626d6960448201526d74746564206d696c6573746f6e6560901b60648201526084016105c6565b600061163e621275006002613f59565b826003015461164d9190613fa5565b90508042101561169f5760405162461bcd60e51b815260206004820152601d60248201527f456d657267656e63792074696d656f7574206e6f74207265616368656400000060448201526064016105c6565b60078201805460ff19166006179055825460018301546116ee917f00000000000000000000000000000000000000000000000000000000000000006001600160a01b0390811692911690613467565b600180830154604080518b8152602081019290925281019190915289907f72f7fbbb65b9676493891b1db16679b5f18463b98706a57923cf18c1d44604ba9060600160405180910390a250505050505050610c496001600055565b6000828152600260205260408120805460018201546001600160a01b03858116928116831494911690911491606091805b60078301548110156117dd57866001600160a01b03168360070182815481106117a5576117a5613d17565b60009182526020909120600260099092020101546001600160a01b0316036117d557816117d181613fb8565b9250505b60010161177a565b50806001600160401b038111156117f6576117f66136a8565b60405190808252806020026020018201604052801561181f578160200160208202803683370190505b5092506000805b60078401548110156118a657876001600160a01b031684600701828154811061185157611851613d17565b60009182526020909120600260099092020101546001600160a01b03160361189e5780858361187f81613fb8565b94508151811061189157611891613d17565b6020026020010181815250505b600101611826565b505050509250925092565b60008181526002602052604081208190819081908190819081808080805b6007860154811015611a3e5760008660070182815481106118f2576118f2613d17565b600091825260209091206007600990920201015460ff169050600181600681111561191f5761191f61391c565b03611932578361192e81613fb8565b9450505b60028160068111156119465761194661391c565b1480611963575060038160068111156119615761196161391c565b145b8061197f5750600481600681111561197d5761197d61391c565b145b8061199b575060058160068111156119995761199961391c565b145b806119b7575060068160068111156119b5576119b561391c565b145b156119ca57826119c681613fb8565b9350505b60058160068111156119de576119de61391c565b14806119fb575060068160068111156119f9576119f961391c565b145b15611a0e5785611a0a81613fb8565b9650505b6006816006811115611a2257611a2261391c565b03611a355784611a3181613fb8565b9550505b506001016118cf565b5060078501546004860154600387015486918691611a5c9190613f92565b929f919e509c50909a509198509650945050505050565b60008381526002602052604090205483906001600160a01b03163314611aab5760405162461bcd60e51b81526004016105c690613f1e565b600084815260026020526040902060060154849060ff16611ade5760405162461bcd60e51b81526004016105c690613d54565b600085815260026020526040902060070154859085908110611b125760405162461bcd60e51b81526004016105c690613d80565b6000878152600260205260408120600701805488908110611b3557611b35613d17565b6000918252602090912060099091020190506004600782015460ff166006811115611b6257611b6261391c565b14611ba95760405162461bcd60e51b8152602060048201526017602482015276135a5b195cdd1bdb99481b9bdd081cdd589b5a5d1d1959604a1b60448201526064016105c6565b60078101805460ff1916600317905560006006820181905560408051602081019091529081526008820190611bde9082613e3f565b50877f2632a738857d774f3179abee0fa205787aea133c8f6d4cbfe4e605028d3e8230888860405161112f929190613efd565b600082815260026020526040902080548391906001600160a01b0316331480611c5d575060018101546001600160a01b031615801590611c5d575060018101546001600160a01b031633145b611c9d5760405162461bcd60e51b81526020600482015260116024820152704f6e6c7920636c69656e74206f7220504d60781b60448201526064016105c6565b600084815260026020526040902060060154849060ff16611cd05760405162461bcd60e51b81526004016105c690613d54565b600085815260026020526040902060070154859085908110611d045760405162461bcd60e51b81526004016105c690613d80565b6000878152600260205260408120600701805488908110611d2757611d27613d17565b6000918252602090912060099091020190506001600782015460ff166006811115611d5457611d5461391c565b14611db05760405162461bcd60e51b815260206004820152602660248201527f43616e206f6e6c7920756e61737369676e2066726f6d2041737369676e65642060448201526573746174757360d01b60648201526084016105c6565b6002810180546001600160a01b031981169091556000600483015560078201805460ff191690556040518881526001600160a01b039091169081908a907f78bb3a290f28e478ec7f45d2d0bff0c9e69a3e89e882b5527fc6f27264bf58a59060200160405180910390a3505050505050505050565b606060008060008060006060888860026000838152602001908152602001600020600701805490508110611e6b5760405162461bcd60e51b81526004016105c690613d80565b60008b815260026020526040812060070180548c908110611e8e57611e8e613d17565b6000918252602090912060099091020160018101546002820154600783015460038401546006850154855495965086956001600160a01b039094169360ff9093169260088701908790611ee090613db7565b80601f0160208091040260200160405190810160405280929190818152602001828054611f0c90613db7565b8015611f595780601f10611f2e57610100808354040283529160200191611f59565b820191906000526020600020905b815481529060010190602001808311611f3c57829003601f168201915b50505050509650808054611f6c90613db7565b80601f0160208091040260200160405190810160405280929190818152602001828054611f9890613db7565b8015611fe55780601f10611fba57610100808354040283529160200191611fe5565b820191906000526020600020905b815481529060010190602001808311611fc857829003601f168201915b50505050509050995099509950995099509950995050505092959891949750929550565b60008281526002602052604090206007018054839183918290811061203057612030613d17565b60009182526020909120600990910201600201546001600160a01b0316331461206b5760405162461bcd60e51b81526004016105c690613d2d565b600084815260026020526040902060060154849060ff1661209e5760405162461bcd60e51b81526004016105c690613d54565b6000858152600260205260409020600701548590859081106120d25760405162461bcd60e51b81526004016105c690613d80565b60008781526002602052604081206007018054889081106120f5576120f5613d17565b6000918252602090912060099091020190506001600782015460ff1660068111156121225761212261391c565b1461216f5760405162461bcd60e51b815260206004820181905260248201527f4d696c6573746f6e65206e6f7420696e2041737369676e65642073746174757360448201526064016105c6565b42600582015560078101805460ff19166002179055604051878152339089907ff3790ca98397d1f40de9c9c77e98763e751f64752adc0dec0dda9b24226d220e9060200160405180910390a35050505050505050565b6000818152600260205260409020600781015460609182918291829182918291806001600160401b038111156121fd576121fd6136a8565b60405190808252806020026020018201604052801561223057816020015b606081526020019060019003908161221b5790505b509750806001600160401b0381111561224b5761224b6136a8565b604051908082528060200260200182016040528015612274578160200160208202803683370190505b509650806001600160401b0381111561228f5761228f6136a8565b6040519080825280602002602001820160405280156122b8578160200160208202803683370190505b509550806001600160401b038111156122d3576122d36136a8565b6040519080825280602002602001820160405280156122fc578160200160208202803683370190505b509450806001600160401b03811115612317576123176136a8565b604051908082528060200260200182016040528015612340578160200160208202803683370190505b509350806001600160401b0381111561235b5761235b6136a8565b60405190808252806020026020018201604052801561238e57816020015b60608152602001906001900390816123795790505b50925060005b818110156125f15760008360070182815481106123b3576123b3613d17565b906000526020600020906009020190508060000180546123d290613db7565b80601f01602080910402602001604051908101604052809291908181526020018280546123fe90613db7565b801561244b5780601f106124205761010080835404028352916020019161244b565b820191906000526020600020905b81548152906001019060200180831161242e57829003601f168201915b50505050508a838151811061246257612462613d17565b6020026020010181905250806001015489838151811061248457612484613d17565b6020908102919091010152600281015488516001600160a01b03909116908990849081106124b4576124b4613d17565b6001600160a01b03909216602092830291909101909101526007810154875160ff909116908890849081106124eb576124eb613d17565b602002602001019060068111156125045761250461391c565b908160068111156125175761251761391c565b81525050806006015486838151811061253257612532613d17565b60200260200101818152505080600801805461254d90613db7565b80601f016020809104026020016040519081016040528092919081815260200182805461257990613db7565b80156125c65780601f1061259b576101008083540402835291602001916125c6565b820191906000526020600020905b8154815290600101906020018083116125a957829003601f168201915b50505050508583815181106125dd576125dd613d17565b602090810291909101015250600101612394565b50505091939550919395565b61260561343d565b6000828152600260205260409020600701548290829081106126395760405162461bcd60e51b81526004016105c690613d80565b6000848152600260205260409020600681015460ff1661266b5760405162461bcd60e51b81526004016105c690613d54565b600081600701858154811061268257612682613d17565b6000918252602090912060099091020190506006600782015460ff1660068111156126af576126af61391c565b036126eb5760405162461bcd60e51b815260206004820152600c60248201526b105b1c9958591e481c185a5960a21b60448201526064016105c6565b60028101546001600160a01b03166127335760405162461bcd60e51b815260206004820152600b60248201526a4e6f2061737369676e656560a81b60448201526064016105c6565b6004600782015460ff16600681111561274e5761274e61391c565b14801561275f575060008160060154115b801561277d57506212750081600601546127799190613fa5565b4210155b6127c95760405162461bcd60e51b815260206004820152601960248201527f4e6f7420726561647920746f206175746f2d72656c656173650000000000000060448201526064016105c6565b6000612710836002015483600101546127e29190613f59565b6127ec9190613f70565b905060008183600101546128009190613f92565b60078401805460ff191660061790556001840154600486018054929350909160009061282d908490613fa5565b92505081905550818460050160008282546128489190613fa5565b90915550506002830154612889906001600160a01b037f00000000000000000000000000000000000000000000000000000000000000008116911683613467565b60018401546001600160a01b0316158015906128a55750600082115b156128e65760018401546128e6906001600160a01b037f00000000000000000000000000000000000000000000000000000000000000008116911684613467565b600180840154604080518a8152602081019290925281019190915288907f72f7fbbb65b9676493891b1db16679b5f18463b98706a57923cf18c1d44604ba9060600160405180910390a2505050505050610c496001600055565b600082815260026020526040902060060154829060ff166129735760405162461bcd60e51b81526004016105c690613d54565b6000838152600260205260409020600701548390839081106129a75760405162461bcd60e51b81526004016105c690613d80565b60008581526002602052604081206007018054869081106129ca576129ca613d17565b6000918252602090912060099091020190506001600782015460ff1660068111156129f7576129f761391c565b14612a3d5760405162461bcd60e51b81526020600482015260166024820152754e6f7420696e2041737369676e65642073746174757360501b60448201526064016105c6565b62093a808160040154612a509190613fa5565b421015612a985760405162461bcd60e51b8152602060048201526016602482015275105cdcda59db9b595b9d081b9bdd08195e1c1a5c995960521b60448201526064016105c6565b6002810180546001600160a01b031981169091556000600483015560078201805460ff191690556040518681526001600160a01b0390911690819088907f78bb3a290f28e478ec7f45d2d0bff0c9e69a3e89e882b5527fc6f27264bf58a59060200160405180910390a350505050505050565b6000828152600260205260408120600701548190819081908190879087908110612b475760405162461bcd60e51b81526004016105c690613d80565b600089815260026020526040812060070180548a908110612b6a57612b6a613d17565b60009182526020822060099091020191506004600783015460ff166006811115612b9657612b9661391c565b148015612ba7575060008260060154115b8015612bc55750621275008260060154612bc19190613fa5565b4210155b600383015460048401546005850154600690950154919e909d50939b50995097509095505050505050565b60008251845114612c3b5760405162461bcd60e51b8152602060048201526015602482015274082e4e4c2f240d8cadccee8d040dad2e6dac2e8c6d605b1b60448201526064016105c6565b6000845111612c8c5760405162461bcd60e51b815260206004820152601b60248201527f4e656564206174206c65617374206f6e65206d696c6573746f6e65000000000060448201526064016105c6565b603284511115612cd45760405162461bcd60e51b8152602060048201526013602482015272546f6f206d616e79206d696c6573746f6e657360681b60448201526064016105c6565b6107d0851115612d185760405162461bcd60e51b815260206004820152600f60248201526e0a09a40cccaca40e8dede40d0d2ced608b1b60448201526064016105c6565b81511580612d27575083518251145b612d735760405162461bcd60e51b815260206004820152601f60248201527f41737369676e656573206172726179206c656e677468206d69736d617463680060448201526064016105c6565b6001600160a01b03861615612dd557336001600160a01b03871603612dd05760405162461bcd60e51b8152602060048201526013602482015272436c69656e742063616e6e6f7420626520504d60681b60448201526064016105c6565b612e23565b8415612e235760405162461bcd60e51b815260206004820152601960248201527f43616e6e6f74207365742066656520776974686f757420504d0000000000000060448201526064016105c6565b6000805b84518110156130ac57620f4240858281518110612e4657612e46613d17565b60200260200101511015612e8f5760405162461bcd60e51b815260206004820152601060248201526f105b5bdd5b9d081d1bdbc81cdb585b1b60821b60448201526064016105c6565b6000868281518110612ea357612ea3613d17565b60200260200101515111612ef05760405162461bcd60e51b815260206004820152601460248201527311195cd8dc9a5c1d1a5bdb881c995c5d5a5c995960621b60448201526064016105c6565b6101f4868281518110612f0557612f05613d17565b6020026020010151511115612f535760405162461bcd60e51b81526020600482015260146024820152734465736372697074696f6e20746f6f206c6f6e6760601b60448201526064016105c6565b60008451118015612f90575060006001600160a01b0316848281518110612f7c57612f7c613d17565b60200260200101516001600160a01b031614155b1561307d57336001600160a01b0316848281518110612fb157612fb1613d17565b60200260200101516001600160a01b03160361300b5760405162461bcd60e51b8152602060048201526019602482015278436c69656e742063616e6e6f742062652061737369676e656560381b60448201526064016105c6565b876001600160a01b031684828151811061302757613027613d17565b60200260200101516001600160a01b03160361307d5760405162461bcd60e51b8152602060048201526015602482015274504d2063616e6e6f742062652061737369676e656560581b60448201526064016105c6565b84818151811061308f5761308f613d17565b6020026020010151826130a29190613fa5565b9150600101612e27565b506130e26001600160a01b037f0000000000000000000000000000000000000000000000000000000000000000163330846134cb565b60018054600091826130f383613fb8565b9190505590506000600260008381526020019081526020016000209050338160000160006101000a8154816001600160a01b0302191690836001600160a01b03160217905550888160010160006101000a8154816001600160a01b0302191690836001600160a01b0316021790555087816002018190555082816003018190555060018160060160006101000a81548160ff02191690831515021790555060005b87518110156133da576000808751116131ae5760006131c9565b8682815181106131c0576131c0613d17565b60200260200101515b905060006001600160a01b0382166131e25760006131e5565b60015b9050836007016040518061012001604052808c868151811061320957613209613d17565b602002602001015181526020018b868151811061322857613228613d17565b60200260200101518152602001846001600160a01b0316815260200142815260200160006001600160a01b0316856001600160a01b03160361326b57600061326d565b425b815260200160008152602001600081526020018360068111156132925761329261391c565b81526040805160208181019092526000808252928201528354600181018555938252902081519192600902019081906132cb9082613e3f565b506020820151816001015560408201518160020160006101000a8154816001600160a01b0302191690836001600160a01b03160217905550606082015181600301556080820151816004015560a0820151816005015560c0820151816006015560e08201518160070160006101000a81548160ff021916908360068111156133555761335561391c565b0217905550610100820151600882019061336f9082613e3f565b5050506001600160a01b038216156133d057336001600160a01b0316826001600160a01b0316867f14c8b65b26297ca8edd10eb94b1300fb6c198710b903943bd3756b8db1a708cc866040516133c791815260200190565b60405180910390a45b5050600101613194565b508651604080516001600160a01b038c168152602081018b9052808201869052606081019290925251339184917f39d740c2a801cd526991f897ce41f8fb74a25057b9486bdeb4a44c1622e939ad9181900360800190a350979650505050505050565b60026000540361346057604051633ee5aeb560e01b815260040160405180910390fd5b6002600055565b6040516001600160a01b038381166024830152604482018390526134c691859182169063a9059cbb906064015b604051602081830303815290604052915060e01b6020820180516001600160e01b03838183161783525050505061350a565b505050565b6040516001600160a01b0384811660248301528381166044830152606482018390526135049186918216906323b872dd90608401613494565b50505050565b600061351f6001600160a01b0384168361356d565b905080516000141580156135445750808060200190518101906135429190613fd1565b155b156134c657604051635274afe760e01b81526001600160a01b03841660048201526024016105c6565b606061357b83836000613584565b90505b92915050565b6060814710156135a95760405163cd78605960e01b81523060048201526024016105c6565b600080856001600160a01b031684866040516135c59190613ff3565b60006040518083038185875af1925050503d8060008114613602576040519150601f19603f3d011682016040523d82523d6000602084013e613607565b606091505b5091509150613617868383613623565b925050505b9392505050565b606082613638576136338261367f565b61361c565b815115801561364f57506001600160a01b0384163b155b1561367857604051639996b31560e01b81526001600160a01b03851660048201526024016105c6565b508061361c565b80511561368f5780518082602001fd5b604051630a12f52160e11b815260040160405180910390fd5b634e487b7160e01b600052604160045260246000fd5b604051601f8201601f191681016001600160401b03811182821017156136e6576136e66136a8565b604052919050565b600082601f8301126136ff57600080fd5b81356001600160401b03811115613718576137186136a8565b61372b601f8201601f19166020016136be565b81815284602083860101111561374057600080fd5b816020850160208301376000918101602001919091529392505050565b60008060006060848603121561377257600080fd5b833592506020840135915060408401356001600160401b0381111561379657600080fd5b6137a2868287016136ee565b9150509250925092565b6000602082840312156137be57600080fd5b5035919050565b600080604083850312156137d857600080fd5b50508035926020909101359150565b80356001600160a01b03811681146137fe57600080fd5b919050565b60008060006060848603121561381857600080fd5b833592506020840135915061382f604085016137e7565b90509250925092565b6000806040838503121561384b57600080fd5b8235915061385b602084016137e7565b90509250929050565b600081518084526020840193506020830160005b82811015613896578151865260209586019590910190600101613878565b5093949350505050565b831515815282151560208201526060604082015260006138c36060830184613864565b95945050505050565b60005b838110156138e75781810151838201526020016138cf565b50506000910152565b600081518084526139088160208601602086016138cc565b601f01601f19169290920160200192915050565b634e487b7160e01b600052602160045260246000fd5b6007811061395057634e487b7160e01b600052602160045260246000fd5b9052565b60e08152600061396760e083018a6138f0565b602083018990526001600160a01b038816604084015261398a6060840188613932565b8560808401528460a084015282810360c08401526139a881856138f0565b9a9950505050505050505050565b600082825180855260208501945060208160051b8301016020850160005b83811015613a0657601f198584030188526139f08383516138f0565b60209889019890935091909101906001016139d4565b50909695505050505050565b600081518084526020840193506020830160005b8281101561389657613a39868351613932565b6020958601959190910190600101613a26565b60c081526000613a5f60c08301896139b6565b8281036020840152613a718189613864565b838103604085015287518082526020808a0193509091019060005b81811015613ab35783516001600160a01b0316835260209384019390920191600101613a8c565b50508381036060850152613ac78188613a12565b9150508281036080840152613adc8186613864565b905082810360a0840152613af081856139b6565b9998505050505050505050565b60006001600160401b03821115613b1657613b166136a8565b5060051b60200190565b600082601f830112613b3157600080fd5b8135613b44613b3f82613afd565b6136be565b8082825260208201915060208360051b860101925085831115613b6657600080fd5b602085015b83811015613b83578035835260209283019201613b6b565b5095945050505050565b600082601f830112613b9e57600080fd5b8135613bac613b3f82613afd565b8082825260208201915060208360051b860101925085831115613bce57600080fd5b602085015b83811015613b8357613be4816137e7565b835260209283019201613bd3565b600080600080600060a08688031215613c0a57600080fd5b613c13866137e7565b94506020860135935060408601356001600160401b03811115613c3557600080fd5b8601601f81018813613c4657600080fd5b8035613c54613b3f82613afd565b8082825260208201915060208360051b85010192508a831115613c7657600080fd5b602084015b83811015613cb75780356001600160401b03811115613c9957600080fd5b613ca88d6020838901016136ee565b84525060209283019201613c7b565b50955050505060608601356001600160401b03811115613cd657600080fd5b613ce288828901613b20565b92505060808601356001600160401b03811115613cfe57600080fd5b613d0a88828901613b8d565b9150509295509295909350565b634e487b7160e01b600052603260045260246000fd5b6020808252600d908201526c4f6e6c792061737369676e656560981b604082015260600190565b60208082526012908201527150726f6a656374206e6f742061637469766560701b604082015260600190565b60208082526017908201527f496e76616c6964206d696c6573746f6e6520696e646578000000000000000000604082015260600190565b600181811c90821680613dcb57607f821691505b602082108103613deb57634e487b7160e01b600052602260045260246000fd5b50919050565b601f8211156134c657806000526020600020601f840160051c81016020851015613e185750805b601f840160051c820191505b81811015613e385760008155600101613e24565b5050505050565b81516001600160401b03811115613e5857613e586136a8565b613e6c81613e668454613db7565b84613df1565b6020601f821160018114613ea05760008315613e885750848201515b600019600385901b1c1916600184901b178455613e38565b600084815260208120601f198516915b82811015613ed05787850151825560209485019460019092019101613eb0565b5084821015613eee5786840151600019600387901b60f8161c191681555b50505050600190811b01905550565b828152604060208201526000613f1660408301846138f0565b949350505050565b6020808252600b908201526a13db9b1e4818db1a595b9d60aa1b604082015260600190565b634e487b7160e01b600052601160045260246000fd5b808202811582820484141761357e5761357e613f43565b600082613f8d57634e487b7160e01b600052601260045260246000fd5b500490565b8181038181111561357e5761357e613f43565b8082018082111561357e5761357e613f43565b600060018201613fca57613fca613f43565b5060010190565b600060208284031215613fe357600080fd5b8151801515811461361c57600080fd5b600082516140058184602087016138cc565b919091019291505056fea2646970667358221220b1b87e3e19d5948c1515b8539f733ddae310fae0e48596a4571251e263115ff064736f6c634300081e0033",
  "devdoc": {
    "details": "Direct port of ProjectEscrow with the value layer swapped from native to IERC20.      USDC on Arc Testnet lives at 0x3600000000000000000000000000000000000000 (6 decimals). State machine (unchanged):   Created → Assigned → Accepted → InProgress → Submitted → Approved → Paid                     ↘ Declined (returns to Created, clears assignee)",
    "errors": {
      "AddressEmptyCode(address)": [
        {
          "details": "There's no code at `target` (it is not a contract)."
        }
      ],
      "AddressInsufficientBalance(address)": [
        {
          "details": "The ETH balance of the account is not enough to perform the operation."
        }
      ],
      "FailedInnerCall()": [
        {
          "details": "A call to an address target failed. The target may have reverted."
        }
      ],
      "ReentrancyGuardReentrantCall()": [
        {
          "details": "Unauthorized reentrant call."
        }
      ],
      "SafeERC20FailedOperation(address)": [
        {
          "details": "An operation with an ERC20 token failed."
        }
      ]
    },
    "kind": "dev",
    "methods": {},
    "title": "ChordEscrow",
    "version": 1
  },
  "userdoc": {
    "kind": "user",
    "methods": {
      "createProject(address,uint256,string[],uint256[],address[])": {
        "notice": "Create a project funded with USDC. Caller must `approve` this contract for `total` first."
      },
      "releaseMilestone(uint256,uint256)": {
        "notice": "Anyone can call to auto-release a Submitted milestone after TIMEOUT_PERIOD —         protects workers from silent client ghosting."
      },
      "submitMilestone(uint256,uint256,string)": {
        "notice": "Submit completed work. Daemon convention: put `ipfs://<cid>` or `arweave://<id>`         (or any URI) in `note` pointing to the deliverable."
      }
    },
    "notice": "USDC milestone escrow on Circle Arc — per-milestone assignee + explicit accept.",
    "version": 1
  },
  "storageLayout": {
    "storage": [
      {
        "astId": 1375,
        "contract": "contracts/ChordEscrow.sol:ChordEscrow",
        "label": "_status",
        "offset": 0,
        "slot": "0",
        "type": "t_uint256"
      },
      {
        "astId": 1500,
        "contract": "contracts/ChordEscrow.sol:ChordEscrow",
        "label": "projectCount",
        "offset": 0,
        "slot": "1",
        "type": "t_uint256"
      },
      {
        "astId": 1505,
        "contract": "contracts/ChordEscrow.sol:ChordEscrow",
        "label": "projects",
        "offset": 0,
        "slot": "2",
        "type": "t_mapping(t_uint256,t_struct(Project)1495_storage)"
      }
    ],
    "types": {
      "t_address": {
        "encoding": "inplace",
        "label": "address",
        "numberOfBytes": "20"
      },
      "t_array(t_struct(Milestone)1476_storage)dyn_storage": {
        "base": "t_struct(Milestone)1476_storage",
        "encoding": "dynamic_array",
        "label": "struct ChordEscrow.Milestone[]",
        "numberOfBytes": "32"
      },
      "t_bool": {
        "encoding": "inplace",
        "label": "bool",
        "numberOfBytes": "1"
      },
      "t_enum(MilestoneStatus)1456": {
        "encoding": "inplace",
        "label": "enum ChordEscrow.MilestoneStatus",
        "numberOfBytes": "1"
      },
      "t_mapping(t_uint256,t_struct(Project)1495_storage)": {
        "encoding": "mapping",
        "key": "t_uint256",
        "label": "mapping(uint256 => struct ChordEscrow.Project)",
        "numberOfBytes": "32",
        "value": "t_struct(Project)1495_storage"
      },
      "t_string_storage": {
        "encoding": "bytes",
        "label": "string",
        "numberOfBytes": "32"
      },
      "t_struct(Milestone)1476_storage": {
        "encoding": "inplace",
        "label": "struct ChordEscrow.Milestone",
        "members": [
          {
            "astId": 1458,
            "contract": "contracts/ChordEscrow.sol:ChordEscrow",
            "label": "description",
            "offset": 0,
            "slot": "0",
            "type": "t_string_storage"
          },
          {
            "astId": 1460,
            "contract": "contracts/ChordEscrow.sol:ChordEscrow",
            "label": "amount",
            "offset": 0,
            "slot": "1",
            "type": "t_uint256"
          },
          {
            "astId": 1462,
            "contract": "contracts/ChordEscrow.sol:ChordEscrow",
            "label": "assignee",
            "offset": 0,
            "slot": "2",
            "type": "t_address"
          },
          {
            "astId": 1464,
            "contract": "contracts/ChordEscrow.sol:ChordEscrow",
            "label": "createdAt",
            "offset": 0,
            "slot": "3",
            "type": "t_uint256"
          },
          {
            "astId": 1466,
            "contract": "contracts/ChordEscrow.sol:ChordEscrow",
            "label": "assignedAt",
            "offset": 0,
            "slot": "4",
            "type": "t_uint256"
          },
          {
            "astId": 1468,
            "contract": "contracts/ChordEscrow.sol:ChordEscrow",
            "label": "acceptedAt",
            "offset": 0,
            "slot": "5",
            "type": "t_uint256"
          },
          {
            "astId": 1470,
            "contract": "contracts/ChordEscrow.sol:ChordEscrow",
            "label": "submittedAt",
            "offset": 0,
            "slot": "6",
            "type": "t_uint256"
          },
          {
            "astId": 1473,
            "contract": "contracts/ChordEscrow.sol:ChordEscrow",
            "label": "status",
            "offset": 0,
            "slot": "7",
            "type": "t_enum(MilestoneStatus)1456"
          },
          {
            "astId": 1475,
            "contract": "contracts/ChordEscrow.sol:ChordEscrow",
            "label": "submissionNote",
            "offset": 0,
            "slot": "8",
            "type": "t_string_storage"
          }
        ],
        "numberOfBytes": "288"
      },
      "t_struct(Project)1495_storage": {
        "encoding": "inplace",
        "label": "struct ChordEscrow.Project",
        "members": [
          {
            "astId": 1478,
            "contract": "contracts/ChordEscrow.sol:ChordEscrow",
            "label": "client",
            "offset": 0,
            "slot": "0",
            "type": "t_address"
          },
          {
            "astId": 1480,
            "contract": "contracts/ChordEscrow.sol:ChordEscrow",
            "label": "pm",
            "offset": 0,
            "slot": "1",
            "type": "t_address"
          },
          {
            "astId": 1482,
            "contract": "contracts/ChordEscrow.sol:ChordEscrow",
            "label": "pmFeeBps",
            "offset": 0,
            "slot": "2",
            "type": "t_uint256"
          },
          {
            "astId": 1484,
            "contract": "contracts/ChordEscrow.sol:ChordEscrow",
            "label": "totalAmount",
            "offset": 0,
            "slot": "3",
            "type": "t_uint256"
          },
          {
            "astId": 1486,
            "contract": "contracts/ChordEscrow.sol:ChordEscrow",
            "label": "totalPaid",
            "offset": 0,
            "slot": "4",
            "type": "t_uint256"
          },
          {
            "astId": 1488,
            "contract": "contracts/ChordEscrow.sol:ChordEscrow",
            "label": "totalPmFees",
            "offset": 0,
            "slot": "5",
            "type": "t_uint256"
          },
          {
            "astId": 1490,
            "contract": "contracts/ChordEscrow.sol:ChordEscrow",
            "label": "active",
            "offset": 0,
            "slot": "6",
            "type": "t_bool"
          },
          {
            "astId": 1494,
            "contract": "contracts/ChordEscrow.sol:ChordEscrow",
            "label": "milestones",
            "offset": 0,
            "slot": "7",
            "type": "t_array(t_struct(Milestone)1476_storage)dyn_storage"
          }
        ],
        "numberOfBytes": "256"
      },
      "t_uint256": {
        "encoding": "inplace",
        "label": "uint256",
        "numberOfBytes": "32"
      }
    }
  }
}